{
    "hash": "e87029d56438262885f5b397fe76e683609e0fd844944fdec9a9979d0939b318",
    "confirmations": 1297,
    "size": 4495,
    "height": 2395204,
    "version": 6422787,
    "merkleroot": "9fbe35377912b8a3aee04f8a216802bfe856b07aaa880226ba3585cca4245606",
    "tx": ["b41a20d0f1edb25c6628693770ac9ffe1bfed7afd223bbf910f892ba28f5f086", "b660928a45b089c6facb15c3f51203352eace35f77d063d46978e9d6d0c6a462", "f3a60d11e19c4f85ec735b937059af627368fb2dd76e9eddae470d8d2519ddcf", "c601992c59458a16e9ffb1c50d082f8a4fe84bff6aa349b881adc17ff7365cf7", "26acac2a7572bad88eb53d29b5fac281a4777570b4f348f9f7aa168ae4db9c7b", "52578678bfd39bcdc004b52b19bbe996ce3341c2b922c7fcdbb13e8825261cf8", "d8055688598da760fa5cab84aee273e5802d17ab755d6408403ddf4b8315346e", "db65515b647d7445eb15e487855a5df02fdd7c9e61907e7fcad0a0523d383b7a", "e2538f921a0472a1d1ce6e281036f33accd1ebed1952797e67ed3841811dcdf4", "b8a9c77e402c382c97f9ddddf373037cbd793be0123bb6bff275d875e7af7814", "b2de26c8e0887def392a07ed299fe8e04151bfb60d870f8cf890e898611e1a34", "d53318afefe099bdf41510d4ce7743880263c86dd15da065e1d6539fbc4e1b62", "f3ab3fb50637f7408aa84df9dd0ddbe8b3bb143722a93fcfa07f129322afe078", "5d7d6d14c4ceff9c85f1719163ac9e68dd9acaaa4eb15459d014d9e4e72e0c23"],
    "time": 1537294073,
    "nonce": 0,
    "bits": "1a06318c",
    "difficulty": 2708782.58329638,
    "chainwork": "0000000000000000000000000000000000000000000000f8cc8424bcd80cc5ce",
    "auxpow": {
        "tx": {
            "hex": "01000000010000000000000000000000000000000000000000000000000000000000000000ffffffff600309cd161d2f5669614254432f4d696e65642062792031383035353238383530322f2cfabe6d6de87029d56438262885f5b397fe76e683609e0fd844944fdec9a9979d0939b3180100000000000000107319690076ca9779d3f3d1a40f000000ffffffff02f3b54295000000001976a914e16c28146ed4869c190b3f0bdc18d80d45f9213488ac0000000000000000266a24aa21a9ed183b616262f81a69e14bf9333b8f64d9922aac35b9f9c1740901b5d074d3a57c00000000",
            "txid": "55e7b8657fdf8edbc8763e0a680089b212d5a87c7968d14cb7affdbd8997571f",
            "version": 1,
            "locktime": 0,
            "vin": [{
                "coinbase": "0309cd161d2f5669614254432f4d696e65642062792031383035353238383530322f2cfabe6d6de87029d56438262885f5b397fe76e683609e0fd844944fdec9a9979d0939b3180100000000000000107319690076ca9779d3f3d1a40f000000",
                "sequence": 4294967295
            }],
            "vout": [{
                "value": 25.04177139,
                "n": 0,
                "scriptPubKey": {
                    "asm": "OP_DUP OP_HASH160 e16c28146ed4869c190b3f0bdc18d80d45f92134 OP_EQUALVERIFY OP_CHECKSIG",
                    "hex": "76a914e16c28146ed4869c190b3f0bdc18d80d45f9213488ac",
                    "reqSigs": 1,
                    "type": "pubkeyhash",
                    "addresses": ["DRh29GcLKUE9shKjUYtQeqQMCdw3URtL96"]
                }
            }, {
                "value": 0,
                "n": 1,
                "scriptPubKey": {
                    "asm": "OP_RETURN aa21a9ed183b616262f81a69e14bf9333b8f64d9922aac35b9f9c1740901b5d074d3a57c",
                    "hex": "6a24aa21a9ed183b616262f81a69e14bf9333b8f64d9922aac35b9f9c1740901b5d074d3a57c",
                    "type": "nulldata"
                }
            }],
            "blockhash": "76a6606ef15eaf76d57a028afa433785034fd5471edbdd2e1d6b8f592d9daba6"
        },
        "index": 0,
        "chainindex": 0,
        "merklebranch": ["3b1d46fb789f30277308e5e9e6ea3b97b66e7f9b5ed7e2bb1399bc970dc10211", "b283de863d1991199f4d5292de7ff1d234d6375cc17ab74fa91d5e7bfc68d74a", "abab404bf5b53ff80c37312ee8d9ce5b70fca360cccfeddf090123f9deafcda1", "9f817b96afd4505f52d45e902a783b708351ca4b7b3b8d54ac4cf5824fa989ba", "4f150796f54c4aa70376e2879239e506d88c3b3533db02bf92ce88291bddd172", "3af804769fc1cbe7ed953d05be8b700de3c81e22bdad434ea52f372fd7e40e15", "c38aa2fcaf2a8201ab221a76da9a8f77587ab14ebbd1e6c1e42ef81b32b76995"],
        "chainmerklebranch": [],
        "parentblock": "00000020ab5e7be523e143074102fb5950bce89955f39638a9c2a194fa28fcb93aa266e9e32aea746f948a59e38c5d6fdf6f2a03127f9f122d197f4f5b20d7cc0e9ca506f93ea15bdeed011a99129806"
    },
    "previousblockhash": "439b9c86a995d42e2087efb8de4fde22d6483d2aef73fc574e34884d9cf02ef2",
    "nextblockhash": "68658ff42cf64d14c9bbf90eaf91aaca7fce988ddfbded8c132278e73766c759",
    "reward": 0.02441406,
    "isMainChain": true
}